:0400000033EF0CF0DE
:101000000001001000000100100A4865617465725B
:101010003A25732C436F6F6C65723A25732C5265B9
:101020006C6179313A25732C52656C6179323A25BD
:10103000730A0057656C636F6D652053616D6120A5
:10104000262053616465656E0A00303132333435D1
:1010500036373839414243444546004C4544733A9B
:10106000203078253032580A004C454473204269BC
:101070006E3A2025730A00286E756C6C29004F4665
:1010800046004F4E00000C0E1D6E000E1E6E8AD1E3
:10109000250E2518D8B409D008C0D9FF09C0DAFF39
:1010A00025C0DFFF084A092A7DD1000E246E000EFC
:1010B000236E000E196E03D019840A4A0B2A0AC047
:1010C000F6FF0BC0F7FFF86A0800F550300AD8B4F5
:1010D000F3D70AC0F6FF0BC0F7FFF86A0800F55017
:1010E00060EC0CF0D8A0AED0000E246E000E236E83
:1010F00023C001F024C002F0000E046E0A0E036E3D
:10110000FBEC0BF001C023F002C024F0D00E146EF3
:10111000FF0E156E0AC0F6FF0BC0F7FFF86A080055
:10112000F550166E176A14501626155017221650D1
:101130002326175024220A4A0B2A0AC0F6FF0BC0A6
:10114000F7FFF86A0800F55060EC0CF0D8A07AD0F0
:10115000CFD71DC0D9FF1EC0DAFFDECF1FF0DDCF15
:1011600020F0020E1D26000E1E221F502010D8A4B3
:1011700004D0770E1F6E100E206E000E226E000E31
:10118000216E02D0214A222A21501F24146E22509F
:101190002020156E14C0F6FF15C0F7FF000EF86E84
:1011A0000F0EF76403D00800F55005D0F6CFE1FF2D
:1011B000F7CFE2FFE7500009D8A4E4D72350215C21
:1011C00024502258D8B005D02150235E2250245AF2
:1011D0000DD0000E246E000E236E08D008C0D9FF7B
:1011E00009C0DAFF200EDF6E084A092A2306D8A0BC
:1011F00024062328F3E12428D8B41BD0EFD71FC03E
:10120000F6FF20C0F7FF000EF86E08C0D9FF09C036
:10121000DAFF0F0EF76403D00800F55005D0F6CFC3
:10122000E1FFF7CFE2FFE750DF6E1F4A202A084AAE
:10123000092A2106D8A022062128E1E12228D8B4D3
:10124000B1D0DDD70AC0F6FF0BC0F7FF0A4A0B2A60
:10125000F86A0800F5CF25F02550000AD8B4AFD0C1
:10126000580AD8B406D02B0AD8B473D70B0AD8A41E
:1012700099D01DC0D9FF1EC0DAFFDECF1AF0DDCF36
:101280001BF0020E1D26000E1E22010E256E040EFE
:101290002518D8B415D02550020D010EF324F66E92
:1012A000100EF420F76EF86A000EF8220900F550CF
:1012B0001A5C0900F5501B58D8A002D0252AE7D7A0
:1012C000800E25BE7F0E146E2350255C2450800AAC
:1012D0001458D8B007D02550235E000E25BEFF0E4F
:1012E000245A04D0000E246E000E236E19A410D0D0
:1012F00023502410D8B41FD008C0D9FF09C0DAFF8A
:10130000300EDF6E084A092A2306D8A02406F0D73B
:1013100023502410D8B40FD008C0D9FF09C0DAFF79
:10132000200EDF6E084A092A2306D8A0240623507F
:101330002410D8A4F1D725C01CF030D01AC001F079
:101340001BC002F01C50020D010EF324F66E100EAD
:10135000F420F76EF86A000EF8220900F5CF03F0CA
:101360000A00F5CF04F065EC0BF001500F0B186E7E
:101370001850010D4A0EF324F66E100EF420F76E8D
:10138000F86A000EF8220800F5CF25F008C0D9FF52
:1013900009C0DAFF25C0DFFF084A092A1C061C28FD
:1013A000D8A4CCD70AC0F6FF0BC0F7FF0A4A0B2A15
:1013B000F86A0800F5CF25F02550D8A469D608C0F2
:1013C000D9FF09C0DAFF000EDF6E1200D1EC0BF07E
:1013D00021EC0CF0330E026E100E036E3AEC0BF0A3
:1013E000040081B008D0B0EC0BF0000E026EFA0ED3
:1013F000016E0EEC0CF081B208D086EC0CF0000E01
:10140000026EFA0E016E0EEC0CF081B408D07BEC8B
:101410000CF0000E026EFA0E016E0EEC0CF081B6AE
:1014200008D0A0EC0CF0000E026EFA0E016E0EEC6D
:101430000CF081B808D09DEC0CF0000E026EFA0E94
:10144000016E0EEC0CF081BA0AD051EC0CF042ECBB
:101450000CF0000E026EFA0E016E0EEC0CF06FEC4A
:101460000CF00009D8B4BCD799EC0CF0766E470E9E
:101470007618D8A453D0E8EC0BF077507810D8A4A5
:1014800004D07E0E6E6E100E03D0820E6E6E100EA5
:101490006F6E79507A10D8A404D07E0E706E100E44
:1014A00003D0820E706E100E716E7B507C10D8A42B
:1014B00004D07E0E726E100E03D0820E726E100E6D
:1014C000736E7D507E10D8A404D07E0E746E100E04
:1014D00003D0820E746E100E756E4E0E086E000EE6
:1014E000096E090E0A6E100E0B6E74C00CF075C0FA
:1014F0000DF072C00EF073C00FF070C010F071C02C
:1015000011F06EC012F06FC013F043EC08F04E0EF5
:10151000026E000E036E3AEC0BF043D0670E7618A5
:10152000D8A416D04E0E086E000E096E5B0E0A6E21
:10153000100E0B6E83CF0CF00D6A43EC08F04E0ECC
:10154000026E000E036E3AEC0BF08EEC0BF029D01D
:10155000480E7618D8A403D07BEC0CF022D0680E8D
:101560007618D8A403D086EC0CF01BD0440E761865
:10157000D8A403D09DEC0CF014D0640E7618D8A437
:1015800003D0A0EC0CF00DD0630E7618D8A40CD0CC
:10159000000E7A6E000E796E79B002D0829001D082
:1015A0000FD0000E766E1CD7430E7618D8A40AD042
:1015B000000E7A6E010E796E79B002D0829001D061
:1015C0008280EFD7720E7618D8A40AD0000E786EFB
:1015D000000E776E77B002D0849001D00DD0E1D7A5
:1015E000520E7618D8A40AD0000E786E010E776ECF
:1015F00077B002D0849001D08480D3D77A0E761849
:10160000D8A4EED6B0EC0BF0CCD7FF0E076EFF0ED1
:10161000086E05C009F006C00AF0075009260850F8
:101620000A2209500324D96E0A500420DA6E000EF3
:10163000DF6EFE0E05240D6EFF0E06200E6E0EBE32
:10164000120001B004D0000E0C6E300E03D0000E5C
:101650000C6E310E0B6E0D500324D96E0E5004200B
:10166000DA6E0BC0DFFFD890023201320D06D8A02F
:101670000E06E5D715D002C0F6FF03C0F7FF000E37
:10168000F86E0F0EF76403D00800F55005D0F6CFC2
:10169000E1FFF7CFE2FFE75091EC0CF0024A032A9A
:1016A00002C0F6FF03C0F7FF000EF86E0F0EF764DE
:1016B00003D00800F55005D0F6CFE1FFF7CFE2FFE9
:1016C000E7500009D8B41200D6D7000E066E000EFF
:1016D000056E03500410D8B41CD0010E076E04D060
:1016E000D89003360436072A04AEFAD7D8900536C8
:1016F00006360350015C04500258D8A005D00350B0
:10170000015E0450025A0580D89004320332072E3D
:10171000EDD705C001F006C002F0120083CF01F042
:10172000026A800E036E000E046E000E066E090E35
:10173000056E05EC0BF0260E086E000E096E690EA4
:101740000A6E100E0B6E800E0C6E000E0D6E43ECCA
:1017500008F0260E026E000E036E3AEC0BF012003B
:10176000829A829482908490000E7A6E000E796E36
:10177000000E786E000E776E82A403D0016A012AF3
:1017800001D0016A01507B6E7C6A82AA03D0016A93
:10179000012A01D0016A01507D6E7E6A000E8C6EB6
:1017A0001200000EC26E0C0EC16E9368800E946E15
:1017B000000E826E9268000E956E000E966E390EC7
:1017C000936E000E836E93829384F28EF28C1200DD
:1017D00082A003D0016A012A01D0016A0150796E0A
:1017E0007A6A84A003D0016A012A01D0016A0150FB
:1017F000776E786A120001500302F3CF05F0F4CF40
:1018000006F001500402F350062602500302F35082
:10181000062605C001F006C002F01200000E046E9C
:10182000000E036E07D0C80E04000400E82EFCD79B
:10183000034A042A0150035C02500458D8B0120035
:10184000F2D7B896000EAC6E190EAF6E000EB06EE9
:10185000AC84AC8A000EAB6EAB88AB8EAECF01F021
:10186000AECF01F0120000EE80F0090EEE6AE8063D
:10187000FDE100EE77F0080EEE6AE806FDE10001FA
:10188000E6EF09F077507810D8A402D0010E01D00D
:10189000000E776E786A77B002D0849001D0848091
:1018A000120079507A10D8A402D0010E01D0000E97
:1018B000796E7A6A79B002D0829001D0828012006B
:1018C000036E000E026E3A0E036005D02F0E036405
:1018D00002D0010E026E02C001F001301200ABB462
:1018E00002D0ABA202D0AB98AB889EAA02D0010E68
:1018F0001200000E1200828A8294000E7C6E000E8E
:101900007B6E000E7E6E010E7D6E1200829A8284C6
:10191000000E7C6E010E7B6E000E7E6E000E7D6EE4
:101920001200016E01D00400ACA2FDD701C0ADFFD2
:101930001200AECF01F0015012003C0E8C1A1200C2
:06194000C30E8C1A120018
:020000040020DA
:08000000FFFFFFFFFFFFFFFF00
:020000040030CA
:0E000000FF011F1FFF8385FF0FC00FE00F40A1
:00000001FF
